:020000020000FC
:040000000C947200EA
:080064000C9498001895189502
:1000E4000FEF04B90ED07894209100010FEF05B9F9
:1000F4002F930E94BB002F9100E005B90E94AB0032
:10010400F3CF0F9307E60093C40000E00093C5000B
:1001140000E8006100600093C10004E00260006038
:10012400006000600093C2000F9108950F930FB711
:100134000F930091C60010900001013609F4139446
:10014400033609F41A94109200010F910FBF0F9116
:1001540018954F935F936F9342E057E764E06A9575
:10016400F1F75A95E1F74A95D1F76F915F914F9165
:100174000895DF93CF93CDB7DEB70F924F930D80E1
:1001840045E34A95F1F700000A94D1F74F910F9097
:06019400CF91DF910895F8
:00000001FF
