:020000020000FC
:040000000C947200EA
:080064000C9492001895189508
:1000E4000FEF04B908D078942D9A0E94A8002D9897
:1000F4000E94A800F9CF0F9307E60093C40000E024
:100104000093C50000E8006100600093C10004E0B2
:1001140002600060006000600093C2000F910895C7
:100124000F930FB70F930091C6001F93013349F447
:1001340010E0139515B90E94B8001430D1F710934C
:1001440000011F910F910FBF0F9118954F935F936B
:100154006F9349E256E960E86A95F1F75A95E1F739
:100164004A95D1F76F915F914F9108954F935F93A3
:100174006F9342E55BE260E06A95F1F75A95E1F727
:100184004A95D1F7C89500006F915F914F910895FA
:00000001FF
