:020000020000FC
:040000000C947200EA
:080064000C9499001895189501
:1000E4000FEF04B90FD078942D9A0E94AB002D988D
:1000F4000E94AB0020302A9520930001A9F728988C
:100104002F91F2CF0F9307E60093C40000E0009311
:10011400C50000E8006100600093C10004E00260D3
:100124000060006000600093C2000F9108950F9377
:100134000FB70F930091C600017039F0289A2F93DE
:100144002091000124E0209300010F910FBF0F9133
:1001540018954F935F936F9345E15BE46FEB6A955A
:10016400F1F75A95E1F74A95D1F700006F915F9145
:040174004F9108950A
:00000001FF
