:020000020000FC
:040000000C947200EA
:080064000C9492001895189508
:1000E4000FEF04B908D078942D9A0E94A9002D9896
:1000F4000E94A900F9CF0F9307E60093C40000E023
:100104000093C50000E8006100600093C10004E0B2
:1001140002600060006000600093C2000F910895C7
:100124000F930FB70F930091C600013361F41F932F
:100134001091000110E0139518B90E94B900143011
:10014400D1F7109300010F910FBF0F9118954F93A2
:100154005F936F9349E256E960E86A95F1F75A951F
:10016400E1F74A95D1F76F915F914F91089522E598
:100174003BE240E04A95F1F73A95E1F72A95D1F749
:04018400C89508957D
:00000001FF
