:020000020000FC
:040000000C947200EA
:080064000C949A001895189500
:1000E4000FEF04B910D07894243021F42A952030ED
:1000F40041F02A952D9A0E94A9002D980E94A900EA
:10010400F6CF2898F1CF0F9307E60093C40000E0E0
:100114000093C50000E8006100600093C10004E0A2
:1001240002600060006000600093C2000F910895B7
:100134000F930FB70F930091C600017021F0289A16
:100144002091000124E00F910FBF0F9118954F9358
:100154005F936F9345E15BE46FEB6A95F1F75A9512
:10016400E1F74A95D1F700006F915F914F9108959F
:00000001FF
