:020000020000FC
:040000000C947200EA
:080064000C949A001895189500
:1000E4000FEF04B910D078942D9A0E94A9002D988E
:1000F4000E94A9001030C1F31A9518B91093000199
:10010400F3CF1F91F1CF0F9307E60093C40000E0F3
:100114000093C50000E8006100600093C10004E0A2
:1001240002600060006000600093C2000F910895B7
:100134000F930FB70F930091C6001F93013319F467
:1001440014E0109300010F910FBF0F9118954F9376
:100154005F936F9349E256E960E86A95F1F75A951F
:10016400E1F74A95D1F76F915F914F9108954F93BD
:100174005F936F9342E55BE260E06A95F1F75A950D
:10018400E1F74A95D1F7C89500006F915F914F91BF
:020194000895CC
:00000001FF
