:020000020000FC
:100000000FEF0AB901E00BB90E941200000F03952F
:100010000F3FC9F70BB90E94220000270BB90E94BD
:100020003400F0CF2F933F934F9325E03FE042EF12
:100030004A95F1F73A95E1F72A95D1F74F913F911B
:100040002F9108952F933F934F9322E53BE240E099
:100050004A95F1F73A95E1F72A95D1F7C89500004E
:100060004F913F912F9108952F933F934F9329E202
:1000700036E940E84A95F1F73A95E1F72A95D1F744
:080080004F913F912F9108956B
:00000001FF
