:020000020000FC
:040000000C947200EA
:080064000C9492001895189508
:1000E4000FEF04B908D078942D9A0E949D002D98A2
:1000F4000E949D00F9CF0F9307E60093C40000E02F
:100104000093C50000E8006100600093C10004E0B2
:1001140002600062006000600093C2000F910895C5
:100124000F930FB70F930091C600009300010F9136
:100134000FBF0F9118954F935F936F9343E05AE865
:1001440066E56A95F1F75A95E1F74A95D1F700C04B
:100154006F915F914F9108957F938F939F9375E172
:100164008BE49FEB9A95F1F78A95E1F77A95D1F7AD
:0A01740000009F918F917F91089584
:00000001FF
